{"contracts/CoinFlip.sol":{"SimpleCoinFlip":{"abi":[{"inputs":[],"stateMutability":"nonpayable","type":"constructor"},{"anonymous":false,"inputs":[{"indexed":true,"internalType":"address","name":"player","type":"address"},{"indexed":false,"internalType":"bool","name":"side","type":"bool"},{"indexed":false,"internalType":"bool","name":"outcome","type":"bool"},{"indexed":false,"internalType":"uint256","name":"amountWon","type":"uint256"}],"name":"CoinFlipped","type":"event"},{"inputs":[{"internalType":"bool","name":"_side","type":"bool"}],"name":"flip","outputs":[],"stateMutability":"payable","type":"function"},{"inputs":[],"name":"fundContract","outputs":[],"stateMutability":"payable","type":"function"},{"inputs":[],"name":"lastFlipTime","outputs":[{"internalType":"uint256","name":"","type":"uint256"}],"stateMutability":"view","type":"function"},{"inputs":[],"name":"minimumBet","outputs":[{"internalType":"uint256","name":"","type":"uint256"}],"stateMutability":"view","type":"function"},{"inputs":[],"name":"owner","outputs":[{"internalType":"address","name":"","type":"address"}],"stateMutability":"view","type":"function"},{"inputs":[{"internalType":"uint256","name":"_amount","type":"uint256"}],"name":"withdrawFunds","outputs":[],"stateMutability":"nonpayable","type":"function"},{"stateMutability":"payable","type":"receive"}],"evm":{"bytecode":{"linkReferences":{},"object":"6080604052655af3107a400060025534801561001a57600080fd5b50600080546001600160a01b03191633178155426001556003556105a0806100436000396000f3fe6080604052600436106100595760003560e01c8063155dd5ee146100655780631d263f67146100875780637514df311461009a5780638da5cb5b146100c3578063bd097e21146100fb578063c38a8afd1461010357600080fd5b3661006057005b600080fd5b34801561007157600080fd5b5061008561008036600461047a565b610119565b005b610085610095366004610493565b6101e5565b3480156100a657600080fd5b506100b060015481565b6040519081526020015b60405180910390f35b3480156100cf57600080fd5b506000546100e3906001600160a01b031681565b6040516001600160a01b0390911681526020016100ba565b61008561044e565b34801561010f57600080fd5b506100b060025481565b6000546001600160a01b0316331461014c5760405162461bcd60e51b8152600401610143906104bc565b60405180910390fd5b478111156101a85760405162461bcd60e51b8152602060048201526024808201527f496e73756666696369656e742062616c616e636520696e2074686520636f6e746044820152631c9858dd60e21b6064820152608401610143565b600080546040516001600160a01b039091169183156108fc02918491818181858888f193505050501580156101e1573d6000803e3d6000fd5b5050565b6003541561022b5760405162461bcd60e51b81526020600482015260136024820152721499595b9d1c985b98de4819195d1958dd1959606a1b6044820152606401610143565b60016003556002543410156102945760405162461bcd60e51b815260206004820152602960248201527f4d7573742073656e64206174206c6561737420746865206d696e696d756d2062604482015268195d08185b5bdd5b9d60ba1b6064820152608401610143565b6001546102a290603c610518565b4210156102fb5760405162461bcd60e51b815260206004820152602160248201527f506c656173652077616974206265666f726520666c697070696e6720616761696044820152603760f91b6064820152608401610143565b42600181905560405160009160029161033d9144913390602001928352602083019190915260601b6bffffffffffffffffffffffff1916604082015260540190565b6040516020818303038152906040528051906020012060001c6103609190610531565b905060018114600083151582036103fd5761037c346002610553565b9050804710156103ce5760405162461bcd60e51b815260206004820152601d60248201527f496e73756666696369656e7420636f6e74726163742062616c616e63650000006044820152606401610143565b604051339082156108fc029083906000818181858888f193505050501580156103fb573d6000803e3d6000fd5b505b604080518515158152831515602082015290810182905233907f59a08f6137052b94e704a9613c90dac949bffb1168fde5d465fcbf386d8cdb8e9060600160405180910390a2505060006003555050565b6000546001600160a01b031633146104785760405162461bcd60e51b8152600401610143906104bc565b565b60006020828403121561048c57600080fd5b5035919050565b6000602082840312156104a557600080fd5b813580151581146104b557600080fd5b9392505050565b60208082526026908201527f4f6e6c7920746865206f776e65722063616e20706572666f726d20746869732060408201526530b1ba34b7b760d11b606082015260800190565b634e487b7160e01b600052601160045260246000fd5b8082018082111561052b5761052b610502565b92915050565b60008261054e57634e487b7160e01b600052601260045260246000fd5b500690565b808202811582820484141761052b5761052b61050256fea2646970667358221220785ce120bef708ce6b5528ec37863018106d18d6ec55be645408305e98fc5ebd64736f6c63430008130033","opcodes":"PUSH1 0x80 PUSH1 0x40 MSTORE PUSH6 0x5AF3107A4000 PUSH1 0x2 SSTORE CALLVALUE DUP1 ISZERO PUSH2 0x1A JUMPI PUSH1 0x0 DUP1 REVERT JUMPDEST POP PUSH1 0x0 DUP1 SLOAD PUSH1 0x1 PUSH1 0x1 PUSH1 0xA0 SHL SUB NOT AND CALLER OR DUP2 SSTORE TIMESTAMP PUSH1 0x1 SSTORE PUSH1 0x3 SSTORE PUSH2 0x5A0 DUP1 PUSH2 0x43 PUSH1 0x0 CODECOPY PUSH1 0x0 RETURN INVALID PUSH1 0x80 PUSH1 0x40 MSTORE PUSH1 0x4 CALLDATASIZE LT PUSH2 0x59 JUMPI PUSH1 0x0 CALLDATALOAD PUSH1 0xE0 SHR DUP1 PUSH4 0x155DD5EE EQ PUSH2 0x65 JUMPI DUP1 PUSH4 0x1D263F67 EQ PUSH2 0x87 JUMPI DUP1 PUSH4 0x7514DF31 EQ PUSH2 0x9A JUMPI DUP1 PUSH4 0x8DA5CB5B EQ PUSH2 0xC3 JUMPI DUP1 PUSH4 0xBD097E21 EQ PUSH2 0xFB JUMPI DUP1 PUSH4 0xC38A8AFD EQ PUSH2 0x103 JUMPI PUSH1 0x0 DUP1 REVERT JUMPDEST CALLDATASIZE PUSH2 0x60 JUMPI STOP JUMPDEST PUSH1 0x0 DUP1 REVERT JUMPDEST CALLVALUE DUP1 ISZERO PUSH2 0x71 JUMPI PUSH1 0x0 DUP1 REVERT JUMPDEST POP PUSH2 0x85 PUSH2 0x80 CALLDATASIZE PUSH1 0x4 PUSH2 0x47A JUMP JUMPDEST PUSH2 0x119 JUMP JUMPDEST STOP JUMPDEST PUSH2 0x85 PUSH2 0x95 CALLDATASIZE PUSH1 0x4 PUSH2 0x493 JUMP JUMPDEST PUSH2 0x1E5 JUMP JUMPDEST CALLVALUE DUP1 ISZERO PUSH2 0xA6 JUMPI PUSH1 0x0 DUP1 REVERT JUMPDEST POP PUSH2 0xB0 PUSH1 0x1 SLOAD DUP2 JUMP JUMPDEST PUSH1 0x40 MLOAD SWAP1 DUP2 MSTORE PUSH1 0x20 ADD JUMPDEST PUSH1 0x40 MLOAD DUP1 SWAP2 SUB SWAP1 RETURN JUMPDEST CALLVALUE DUP1 ISZERO PUSH2 0xCF JUMPI PUSH1 0x0 DUP1 REVERT JUMPDEST POP PUSH1 0x0 SLOAD PUSH2 0xE3 SWAP1 PUSH1 0x1 PUSH1 0x1 PUSH1 0xA0 SHL SUB AND DUP2 JUMP JUMPDEST PUSH1 0x40 MLOAD PUSH1 0x1 PUSH1 0x1 PUSH1 0xA0 SHL SUB SWAP1 SWAP2 AND DUP2 MSTORE PUSH1 0x20 ADD PUSH2 0xBA JUMP JUMPDEST PUSH2 0x85 PUSH2 0x44E JUMP JUMPDEST CALLVALUE DUP1 ISZERO PUSH2 0x10F JUMPI PUSH1 0x0 DUP1 REVERT JUMPDEST POP PUSH2 0xB0 PUSH1 0x2 SLOAD DUP2 JUMP JUMPDEST PUSH1 0x0 SLOAD PUSH1 0x1 PUSH1 0x1 PUSH1 0xA0 SHL SUB AND CALLER EQ PUSH2 0x14C JUMPI PUSH1 0x40 MLOAD PUSH3 0x461BCD PUSH1 0xE5 SHL DUP2 MSTORE PUSH1 0x4 ADD PUSH2 0x143 SWAP1 PUSH2 0x4BC JUMP JUMPDEST PUSH1 0x40 MLOAD DUP1 SWAP2 SUB SWAP1 REVERT JUMPDEST SELFBALANCE DUP2 GT ISZERO PUSH2 0x1A8 JUMPI PUSH1 0x40 MLOAD PUSH3 0x461BCD PUSH1 0xE5 SHL DUP2 MSTORE PUSH1 0x20 PUSH1 0x4 DUP3 ADD MSTORE PUSH1 0x24 DUP1 DUP3 ADD MSTORE PUSH32 0x496E73756666696369656E742062616C616E636520696E2074686520636F6E74 PUSH1 0x44 DUP3 ADD MSTORE PUSH4 0x1C9858DD PUSH1 0xE2 SHL PUSH1 0x64 DUP3 ADD MSTORE PUSH1 0x84 ADD PUSH2 0x143 JUMP JUMPDEST PUSH1 0x0 DUP1 SLOAD PUSH1 0x40 MLOAD PUSH1 0x1 PUSH1 0x1 PUSH1 0xA0 SHL SUB SWAP1 SWAP2 AND SWAP2 DUP4 ISZERO PUSH2 0x8FC MUL SWAP2 DUP5 SWAP2 DUP2 DUP2 DUP2 DUP6 DUP9 DUP9 CALL SWAP4 POP POP POP POP ISZERO DUP1 ISZERO PUSH2 0x1E1 JUMPI RETURNDATASIZE PUSH1 0x0 DUP1 RETURNDATACOPY RETURNDATASIZE PUSH1 0x0 REVERT JUMPDEST POP POP JUMP JUMPDEST PUSH1 0x3 SLOAD ISZERO PUSH2 0x22B JUMPI PUSH1 0x40 MLOAD PUSH3 0x461BCD PUSH1 0xE5 SHL DUP2 MSTORE PUSH1 0x20 PUSH1 0x4 DUP3 ADD MSTORE PUSH1 0x13 PUSH1 0x24 DUP3 ADD MSTORE PUSH19 0x1499595B9D1C985B98DE4819195D1958DD1959 PUSH1 0x6A SHL PUSH1 0x44 DUP3 ADD MSTORE PUSH1 0x64 ADD PUSH2 0x143 JUMP JUMPDEST PUSH1 0x1 PUSH1 0x3 SSTORE PUSH1 0x2 SLOAD CALLVALUE LT ISZERO PUSH2 0x294 JUMPI PUSH1 0x40 MLOAD PUSH3 0x461BCD PUSH1 0xE5 SHL DUP2 MSTORE PUSH1 0x20 PUSH1 0x4 DUP3 ADD MSTORE PUSH1 0x29 PUSH1 0x24 DUP3 ADD MSTORE PUSH32 0x4D7573742073656E64206174206C6561737420746865206D696E696D756D2062 PUSH1 0x44 DUP3 ADD MSTORE PUSH9 0x195D08185B5BDD5B9D PUSH1 0xBA SHL PUSH1 0x64 DUP3 ADD MSTORE PUSH1 0x84 ADD PUSH2 0x143 JUMP JUMPDEST PUSH1 0x1 SLOAD PUSH2 0x2A2 SWAP1 PUSH1 0x3C PUSH2 0x518 JUMP JUMPDEST TIMESTAMP LT ISZERO PUSH2 0x2FB JUMPI PUSH1 0x40 MLOAD PUSH3 0x461BCD PUSH1 0xE5 SHL DUP2 MSTORE PUSH1 0x20 PUSH1 0x4 DUP3 ADD MSTORE PUSH1 0x21 PUSH1 0x24 DUP3 ADD MSTORE PUSH32 0x506C656173652077616974206265666F726520666C697070696E672061676169 PUSH1 0x44 DUP3 ADD MSTORE PUSH1 0x37 PUSH1 0xF9 SHL PUSH1 0x64 DUP3 ADD MSTORE PUSH1 0x84 ADD PUSH2 0x143 JUMP JUMPDEST TIMESTAMP PUSH1 0x1 DUP2 SWAP1 SSTORE PUSH1 0x40 MLOAD PUSH1 0x0 SWAP2 PUSH1 0x2 SWAP2 PUSH2 0x33D SWAP2 PREVRANDAO SWAP2 CALLER SWAP1 PUSH1 0x20 ADD SWAP3 DUP4 MSTORE PUSH1 0x20 DUP4 ADD SWAP2 SWAP1 SWAP2 MSTORE PUSH1 0x60 SHL PUSH12 0xFFFFFFFFFFFFFFFFFFFFFFFF NOT AND PUSH1 0x40 DUP3 ADD MSTORE PUSH1 0x54 ADD SWAP1 JUMP JUMPDEST PUSH1 0x40 MLOAD PUSH1 0x20 DUP2 DUP4 SUB SUB DUP2 MSTORE SWAP1 PUSH1 0x40 MSTORE DUP1 MLOAD SWAP1 PUSH1 0x20 ADD KECCAK256 PUSH1 0x0 SHR PUSH2 0x360 SWAP2 SWAP1 PUSH2 0x531 JUMP JUMPDEST SWAP1 POP PUSH1 0x1 DUP2 EQ PUSH1 0x0 DUP4 ISZERO ISZERO DUP3 SUB PUSH2 0x3FD JUMPI PUSH2 0x37C CALLVALUE PUSH1 0x2 PUSH2 0x553 JUMP JUMPDEST SWAP1 POP DUP1 SELFBALANCE LT ISZERO PUSH2 0x3CE JUMPI PUSH1 0x40 MLOAD PUSH3 0x461BCD PUSH1 0xE5 SHL DUP2 MSTORE PUSH1 0x20 PUSH1 0x4 DUP3 ADD MSTORE PUSH1 0x1D PUSH1 0x24 DUP3 ADD MSTORE PUSH32 0x496E73756666696369656E7420636F6E74726163742062616C616E6365000000 PUSH1 0x44 DUP3 ADD MSTORE PUSH1 0x64 ADD PUSH2 0x143 JUMP JUMPDEST PUSH1 0x40 MLOAD CALLER SWAP1 DUP3 ISZERO PUSH2 0x8FC MUL SWAP1 DUP4 SWAP1 PUSH1 0x0 DUP2 DUP2 DUP2 DUP6 DUP9 DUP9 CALL SWAP4 POP POP POP POP ISZERO DUP1 ISZERO PUSH2 0x3FB JUMPI RETURNDATASIZE PUSH1 0x0 DUP1 RETURNDATACOPY RETURNDATASIZE PUSH1 0x0 REVERT JUMPDEST POP JUMPDEST PUSH1 0x40 DUP1 MLOAD DUP6 ISZERO ISZERO DUP2 MSTORE DUP4 ISZERO ISZERO PUSH1 0x20 DUP3 ADD MSTORE SWAP1 DUP2 ADD DUP3 SWAP1 MSTORE CALLER SWAP1 PUSH32 0x59A08F6137052B94E704A9613C90DAC949BFFB1168FDE5D465FCBF386D8CDB8E SWAP1 PUSH1 0x60 ADD PUSH1 0x40 MLOAD DUP1 SWAP2 SUB SWAP1 LOG2 POP POP PUSH1 0x0 PUSH1 0x3 SSTORE POP POP JUMP JUMPDEST PUSH1 0x0 SLOAD PUSH1 0x1 PUSH1 0x1 PUSH1 0xA0 SHL SUB AND CALLER EQ PUSH2 0x478 JUMPI PUSH1 0x40 MLOAD PUSH3 0x461BCD PUSH1 0xE5 SHL DUP2 MSTORE PUSH1 0x4 ADD PUSH2 0x143 SWAP1 PUSH2 0x4BC JUMP JUMPDEST JUMP JUMPDEST PUSH1 0x0 PUSH1 0x20 DUP3 DUP5 SUB SLT ISZERO PUSH2 0x48C JUMPI PUSH1 0x0 DUP1 REVERT JUMPDEST POP CALLDATALOAD SWAP2 SWAP1 POP JUMP JUMPDEST PUSH1 0x0 PUSH1 0x20 DUP3 DUP5 SUB SLT ISZERO PUSH2 0x4A5 JUMPI PUSH1 0x0 DUP1 REVERT JUMPDEST DUP2 CALLDATALOAD DUP1 ISZERO ISZERO DUP2 EQ PUSH2 0x4B5 JUMPI PUSH1 0x0 DUP1 REVERT JUMPDEST SWAP4 SWAP3 POP POP POP JUMP JUMPDEST PUSH1 0x20 DUP1 DUP3 MSTORE PUSH1 0x26 SWAP1 DUP3 ADD MSTORE PUSH32 0x4F6E6C7920746865206F776E65722063616E20706572666F726D207468697320 PUSH1 0x40 DUP3 ADD MSTORE PUSH6 0x30B1BA34B7B7 PUSH1 0xD1 SHL PUSH1 0x60 DUP3 ADD MSTORE PUSH1 0x80 ADD SWAP1 JUMP JUMPDEST PUSH4 0x4E487B71 PUSH1 0xE0 SHL PUSH1 0x0 MSTORE PUSH1 0x11 PUSH1 0x4 MSTORE PUSH1 0x24 PUSH1 0x0 REVERT JUMPDEST DUP1 DUP3 ADD DUP1 DUP3 GT ISZERO PUSH2 0x52B JUMPI PUSH2 0x52B PUSH2 0x502 JUMP JUMPDEST SWAP3 SWAP2 POP POP JUMP JUMPDEST PUSH1 0x0 DUP3 PUSH2 0x54E JUMPI PUSH4 0x4E487B71 PUSH1 0xE0 SHL PUSH1 0x0 MSTORE PUSH1 0x12 PUSH1 0x4 MSTORE PUSH1 0x24 PUSH1 0x0 REVERT JUMPDEST POP MOD SWAP1 JUMP JUMPDEST DUP1 DUP3 MUL DUP2 ISZERO DUP3 DUP3 DIV DUP5 EQ OR PUSH2 0x52B JUMPI PUSH2 0x52B PUSH2 0x502 JUMP INVALID LOG2 PUSH5 0x6970667358 0x22 SLT KECCAK256 PUSH25 0x5CE120BEF708CE6B5528EC37863018106D18D6EC55BE645408 ADDRESS 0x5E SWAP9 0xFC 0x5E 0xBD PUSH5 0x736F6C6343 STOP ADDMOD SGT STOP CALLER "},"methodIdentifiers":{"flip(bool)":"1d263f67","fundContract()":"bd097e21","lastFlipTime()":"7514df31","minimumBet()":"c38a8afd","owner()":"8da5cb5b","withdrawFunds(uint256)":"155dd5ee"}}}}}