{
  "_format": "hh-sol-artifact-1",
  "contractName": "SimpleCoinFlip",
  "sourceName": "contracts/CoinFlip.sol",
  "abi": [
    {
      "inputs": [],
      "stateMutability": "nonpayable",
      "type": "constructor"
    },
    {
      "anonymous": false,
      "inputs": [
        {
          "indexed": true,
          "internalType": "address",
          "name": "player",
          "type": "address"
        },
        {
          "indexed": false,
          "internalType": "bool",
          "name": "side",
          "type": "bool"
        },
        {
          "indexed": false,
          "internalType": "bool",
          "name": "outcome",
          "type": "bool"
        },
        {
          "indexed": false,
          "internalType": "uint256",
          "name": "amountWon",
          "type": "uint256"
        }
      ],
      "name": "CoinFlipped",
      "type": "event"
    },
    {
      "inputs": [
        {
          "internalType": "bool",
          "name": "_side",
          "type": "bool"
        }
      ],
      "name": "flip",
      "outputs": [],
      "stateMutability": "payable",
      "type": "function"
    },
    {
      "inputs": [],
      "name": "fundContract",
      "outputs": [],
      "stateMutability": "payable",
      "type": "function"
    },
    {
      "inputs": [],
      "name": "lastFlipTime",
      "outputs": [
        {
          "internalType": "uint256",
          "name": "",
          "type": "uint256"
        }
      ],
      "stateMutability": "view",
      "type": "function"
    },
    {
      "inputs": [],
      "name": "minimumBet",
      "outputs": [
        {
          "internalType": "uint256",
          "name": "",
          "type": "uint256"
        }
      ],
      "stateMutability": "view",
      "type": "function"
    },
    {
      "inputs": [],
      "name": "owner",
      "outputs": [
        {
          "internalType": "address",
          "name": "",
          "type": "address"
        }
      ],
      "stateMutability": "view",
      "type": "function"
    },
    {
      "inputs": [
        {
          "internalType": "uint256",
          "name": "_amount",
          "type": "uint256"
        }
      ],
      "name": "withdrawFunds",
      "outputs": [],
      "stateMutability": "nonpayable",
      "type": "function"
    },
    {
      "stateMutability": "payable",
      "type": "receive"
    }
  ],
  "bytecode": "0x6080604052655af3107a400060025534801561001a57600080fd5b50600080546001600160a01b03191633178155426001556003556105a0806100436000396000f3fe6080604052600436106100595760003560e01c8063155dd5ee146100655780631d263f67146100875780637514df311461009a5780638da5cb5b146100c3578063bd097e21146100fb578063c38a8afd1461010357600080fd5b3661006057005b600080fd5b34801561007157600080fd5b5061008561008036600461047a565b610119565b005b610085610095366004610493565b6101e5565b3480156100a657600080fd5b506100b060015481565b6040519081526020015b60405180910390f35b3480156100cf57600080fd5b506000546100e3906001600160a01b031681565b6040516001600160a01b0390911681526020016100ba565b61008561044e565b34801561010f57600080fd5b506100b060025481565b6000546001600160a01b0316331461014c5760405162461bcd60e51b8152600401610143906104bc565b60405180910390fd5b478111156101a85760405162461bcd60e51b8152602060048201526024808201527f496e73756666696369656e742062616c616e636520696e2074686520636f6e746044820152631c9858dd60e21b6064820152608401610143565b600080546040516001600160a01b039091169183156108fc02918491818181858888f193505050501580156101e1573d6000803e3d6000fd5b5050565b6003541561022b5760405162461bcd60e51b81526020600482015260136024820152721499595b9d1c985b98de4819195d1958dd1959606a1b6044820152606401610143565b60016003556002543410156102945760405162461bcd60e51b815260206004820152602960248201527f4d7573742073656e64206174206c6561737420746865206d696e696d756d2062604482015268195d08185b5bdd5b9d60ba1b6064820152608401610143565b6001546102a290603c610518565b4210156102fb5760405162461bcd60e51b815260206004820152602160248201527f506c656173652077616974206265666f726520666c697070696e6720616761696044820152603760f91b6064820152608401610143565b42600181905560405160009160029161033d9144913390602001928352602083019190915260601b6bffffffffffffffffffffffff1916604082015260540190565b6040516020818303038152906040528051906020012060001c6103609190610531565b905060018114600083151582036103fd5761037c346002610553565b9050804710156103ce5760405162461bcd60e51b815260206004820152601d60248201527f496e73756666696369656e7420636f6e74726163742062616c616e63650000006044820152606401610143565b604051339082156108fc029083906000818181858888f193505050501580156103fb573d6000803e3d6000fd5b505b604080518515158152831515602082015290810182905233907f59a08f6137052b94e704a9613c90dac949bffb1168fde5d465fcbf386d8cdb8e9060600160405180910390a2505060006003555050565b6000546001600160a01b031633146104785760405162461bcd60e51b8152600401610143906104bc565b565b60006020828403121561048c57600080fd5b5035919050565b6000602082840312156104a557600080fd5b813580151581146104b557600080fd5b9392505050565b60208082526026908201527f4f6e6c7920746865206f776e65722063616e20706572666f726d20746869732060408201526530b1ba34b7b760d11b606082015260800190565b634e487b7160e01b600052601160045260246000fd5b8082018082111561052b5761052b610502565b92915050565b60008261054e57634e487b7160e01b600052601260045260246000fd5b500690565b808202811582820484141761052b5761052b61050256fea2646970667358221220785ce120bef708ce6b5528ec37863018106d18d6ec55be645408305e98fc5ebd64736f6c63430008130033",
  "linkReferences": {},
  "deployedLinkReferences": {}
}